:100000000C9462000C948A000C948A000C948A0070
:100010000C948A000C948A000C948A000C948A0038
:100020000C948A000C948A000C948A000C948A0028
:100030000C948A000C948A000C948A000C948A0018
:100040000C940A030C948A000C9452030C947F03C2
:100050000C948A000C948A000C948A000C948A00F8
:100060000C948A000C948A000000000023002600F3
:10007000290000000008000201000003040700003E
:1000800000000000000000000000250028002B00F8
:1000900000000000240027002A00040404040404D3
:1000A0000404020202020202030303030303010227
:1000B00004081020408001020408102001020408F6
:1000C0001020A50311241FBECFEFD8E0DEBFCDBFA7
:1000D00011E0A0E0B1E0E6E3FAE002C005900D9285
:1000E000AE3BB107D9F722E0AEEBB1E001C01D9203
:1000F000A436B207E1F710E0C2E6D0E004C02197D1
:10010000FE010E941305C136D107C9F70E94D20330
:100110000C94EE040C940000CF93DF9300D000D039
:10012000CDB7DEB73FB7F89480915B0290915C0247
:10013000A0915D02B0915E0226B5A89B05C02F3F3D
:1001400019F00196A11DB11D3FBFBA2FA92F982FFD
:100150008827820F911DA11DB11D9C01AD0162E098
:10016000220F331F441F551F6A95D1F7CA01B901E9
:100170000F900F900F900F90DF91CF91089578948A
:1001800084B5826084BD84B5816084BD85B582609C
:1001900085BD85B5816085BDEEE6F0E0808181603A
:1001A0008083E1E8F0E0108280818260808380813A
:1001B00081608083E0E8F0E0808181608083E1EB12
:1001C000F0E0808184608083E0EBF0E080818160FA
:1001D0008083EAE7F0E080818460808380818260B0
:1001E0008083808181608083808180688083109299
:1001F000C1000895CF93DF9390E0FC01E255FF4FDB
:10020000249186569F4FFC0184918823D1F090E081
:10021000880F991FFC01E057FF4FA591B491FC0195
:10022000EA57FF4FC591D4919FB7623069F4F894B3
:100230003C91822F809583238C938881822B8883A5
:100240009FBFDF91CF910895F8948C91822B8C936E
:10025000F7CF843099F038F48230C1F0833041F028
:10026000813081F008958730A1F08830C1F0089581
:10027000809180008F778093800008958091800026
:100280008F7DF9CF84B58F7784BD089584B58F7D38
:10029000FBCF8091B0008F778093B000089580915C
:1002A000B0008F7DF9CF1F93CF93DF93162F282FA8
:1002B00030E0F901EE58FF4F8491F901E255FF4F0C
:1002C000D491F901E656FF4FC491CC23A1F08111DE
:1002D0000E942901EC2FF0E0EE0FFF1FEA57FF4FBD
:1002E000A591B4919FB7F8948C91111108C0D09545
:1002F000D823DC939FBFDF91CF911F9108958D2B61
:100300008C93F8CFCF93DF93282F30E0F901EE588C
:10031000FF4F8491F901E255FF4FD491F901E65660
:10032000FF4FC491CC2379F081110E942901EC2F59
:10033000F0E0EE0FFF1FE859FF4FA591B491EC914B
:10034000ED2381E009F480E090E0DF91CF91089502
:10035000FC01848DDF01A80FB11DA35ABF4F2C9162
:10036000848D90E001968F739927848FA689B78931
:100370002C93A089B1898C91837080648C93938D28
:10038000848D981306C00288F389E02D80818F7DCB
:1003900080830895FC01818D228D90E0805C9F4FC9
:1003A000821B91098F73992708958EEB91E00E942B
:1003B000CA019C0181E0232B09F480E0089580E0CC
:1003C00090E0892B29F00E94D50181110C94000046
:1003D0000895FC01918D828D981731F0828DE80F80
:1003E000F11D858D90E008958FEF9FEF0895FC013A
:1003F000918D828D981761F0828DDF01A80FB11D5C
:100400005D968C91928D9F5F9F73928F90E008957F
:100410008FEF9FEF0895FC01538D448D252F30E021
:10042000842F90E0821B930B541710F0CF96089501
:1004300001970895CF93DF93EC01888D81110FC050
:10044000DF91CF9108950FB607FC0DC08C9185FF09
:1004500008C0808185FF03C0CE010E94A801AA893F
:10046000BB89E889F9898C9185FDEDCF808186FF74
:10047000EACFE6CFEF92FF920F931F93CF93DF93D4
:10048000EC01F62E81E0888F9B8D8C8D98131AC01D
:10049000E889F989808185FF15C09FB7F894EE89B6
:1004A000FF896083E889F989808183708064808313
:1004B0009FBF81E090E0DF91CF911F910F91FF905E
:1004C000EF9008950B8D10E00F5F1F4F0F731127F2
:1004D000E02E8C8D8E1579F08B8DFE01E80FF11DCD
:1004E000E35AFF4FF0829FB7F8940B8FEA89FB899C
:1004F00080818062DCCF0FB607FCEBCFE889F989F9
:10050000808185FFE6CFCE010E94A801E2CFCF9285
:10051000DF92EF92FF920F931F93CF93DF937C01B3
:100520006A0110E000E00C151D0551F4C801DF91CF
:10053000CF911F910F91FF90EF90DF90CF90089592
:10054000EB01D701ED91FC910190F081E02D6991D3
:10055000C7010995892B51F30F5F1F4FBE01E3CFF0
:100560008F929F92AF92BF92CF92DF92EF92FF92C3
:10057000CF93DF9300D000D0CDB7DEB70E948C00C0
:100580006B017C018CE2882E99249394A12CB12CD0
:100590000E948C00DC01CB018C199D09AE09BF09BA
:1005A000883E9340A105B10598F321E0821A910895
:1005B000A108B10888EEC80E83E0D81EE11CF11C2A
:1005C00081149104A104B10419F70F900F900F90BA
:1005D0000F90DF91CF91FF90EF90DF90CF90BF9081
:1005E000AF909F908F900895BC01009791F0FC010F
:1005F00001900020E9F73197AF01481B590BE091BA
:10060000BE01F091BF010280F381E02D8EEB91E0FD
:10061000099408951F921FB61F9211242F933F93A0
:100620008F939F93AF93BF938091600290916102EB
:10063000A0916202B091630230915F0223E0230F28
:100640002D3750F50196A11DB11D20935F028093B7
:10065000600290936102A0936202B0936302809162
:100660005B0290915C02A0915D02B0915E020196E6
:10067000A11DB11D80935B0290935C02A0935D026B
:10068000B0935E02BF91AF919F918F913F912F9157
:100690001F901FBE1F90189526E8230F0296A11DDC
:1006A000B11DD3CF2F932FB72F938F939F93EF939A
:1006B000FF93E091CE01F091CF018081E091D401D0
:1006C000F091D50182FD19C090818091D7018F5F93
:1006D0008F732091D801821741F0E091D701F0E0AB
:1006E000E254FE4F958F8093D701FF91EF919F9138
:1006F0008F912F912FBF2F9118958081F6CF1F9248
:100700000F920FB60F9211242F933F934F935F9345
:100710006F937F938F939F93AF93BF93EF93FF93C9
:100720008EEB91E00E94A801FF91EF91BF91AF91F4
:100730009F918F917F916F915F914F913F912F91F9
:100740000F900FBE0F901F901895EEEBF1E0138203
:10075000128288EE93E0A0E0B0E084839583A683C4
:10076000B7838CEA91E09183808385EC90E0958754
:10077000848784EC90E09787868780EC90E0918B6B
:10078000808B81EC90E0938B828B82EC90E0958B58
:10079000848B86EC90E0978B868B118E128E138E55
:1007A000148E0895CDB7DEB7A9970FB6F894DEBFC3
:1007B0000FBECDBF0E94BF0061E086E10E94FA003B
:1007C00061E088E10E94FA0061E081E30E94FA00A2
:1007D00061E08FE20E94FA0000E811E0D8018C91FC
:1007E0000E5F1F4F62E00E94FA00E0EAF1E0E017BE
:1007F000F107A1F7E091CE01F091CF0182E0808373
:10080000E091CA01F091CB011082E091CC01F0910E
:10081000CD018FEC80831092D601E091D201F0914E
:10082000D30186E08083E091D001F091D1018081F5
:1008300080618083E091D001F091D1018081886056
:100840008083E091D001F091D10180818068808324
:10085000E091D001F091D10180818F7D80839AE079
:10086000492E512C612C712C00EA11E080E0282ED9
:1008700081E0382E61E086E10E94530161E088E169
:100880000E94530161E081E30E94530161E08FE225
:100890000E945301D8018C910E5F1F4F60E00E94AF
:1008A000530139A628A6E0E8F1E0FFA3EEA3AEA12C
:1008B000BFA18C911296BFA3AEA30E948201892B87
:1008C00009F046C0E8A5F9A5808191816C01092E47
:1008D000000CEE08FF0897FF5FC0E091BE01F091A9
:1008E000BF010190F081E02D6DE28EEB91E0099562
:1008F00088279927DC018C199D09AE09BF098AA3B5
:100900009BA3ACA3BDA319A2DE0191966D016AA1C0
:100910007BA18CA19DA1A30192010E94F1048AA157
:100920009BA1ACA1BDA12AA33BA34CA35DA3605D89
:10093000F60162936F010A97A105B10540F7C60160
:100940000E94F4028AEB91E00E94F4020E94B0023D
:1009500028A539A52E5F3F4F39A728A780EA91E047
:10096000AEA1BFA18A179B0709F0A1CFB0E22B0E61
:10097000311CE8EAF1E0E017F10709F07BCF20E055
:1009800030E0232B09F470CF0E94D501882309F4AD
:100990006BCF0E94000068CF9C2CAD2CBE2C8F2CFE
:1009A00019A29E012F5D3F4F6901692D7A2D8B2D74
:1009B000982DA30192010E94F104892D9A2DAB2D4F
:1009C000B82D922EA32EB42E852E605DF601629373
:1009D0006F010A97A105B10540F7B1CFF8940C94C7
:1009E0001905A1E21A2EAA1BBB1BFD010DC0AA1FEF
:1009F000BB1FEE1FFF1FA217B307E407F50720F088
:100A0000A21BB30BE40BF50B661F771F881F991F02
:100A10001A9469F760957095809590959B01AC014B
:100A2000BD01CF010895EE0FFF1F0590F491E02D59
:060A30000994F894FFCFC9
:100A3600D4007000D1006D00D6007200D3006F00A4
:100A4600D0006C000000380135013A01370134014D
:100A5600D8007400CF006B00DB007700CB00670086
:100A6600D9007500E1003C0133013F012F013D0132
:100A7600CA006600D7007300D2006E00CE006A007E
:100A8600D50071007D002E013B013601320139018E
:100A9600CC006800DA007600C9006500DC0078004A
:100AA600CD006900000030013E012D0140013101F9
:100AB6001A001C001E002000220024002600280028
:100AC6002A002C002E00300032003400350033009E
:100AD6001600180031002F00000000003A028702BD
:0E0AE6000B021A02CA01F701E9010D0A000015
:00000001FF
