:100000000C944E010C947F010C947F010C947F01A1
:100010000C947F010C947F010C947F010C947F0160
:100020000C947F010C947F010C947F010C947F0150
:100030000C947F010C947F010C947F010C947F0140
:100040000C947F010C947F010C947F010C947F0130
:100050000C947F010C947F010C947F010C949E07FB
:100060000C947F010C94E6070C9417080C947F0104
:100070000C947F010C947F010C947F010C947F0100
:100080000C947F010C947F010C947F010C947F01F0
:100090000C947F010C947F010C947F010C94410817
:1000A0000C947F010C947F010C947F010C947F01D0
:1000B0000C947F010C947F010C947F010C947F01C0
:1000C0000C947F010C947F010C947F010C947F01B0
:1000D0000C947F010C947F010C947F010C947F01A0
:1000E0000C947F010C94D3020C94C9020C94C102AD
:1000F0000C940C050C9476040C94B7020C944204F6
:100100000C94AE020C94C5020C945C030C94400455
:100110000C94AA020C94A2020C9463090C94E102C0
:100120000C94A2030C94CF020C94EA060C94B10236
:100130000C9446040C94D7020C94DD040C94DC025D
:100140000C9441040C949C020C94C4030C94F3038F
:100150000C94B0030C94DD020C94BB020C94D303FA
:100160000C9445040C94A6020C941B0B0C9489046B
:100170000C946F040C9498040000200023002600C7
:1001800029002C002F0032000001000003010601AD
:10019000090100000A0B02090C0D0E0807030401F7
:1001A000000000000000000000000000000000004F
:1001B000000000000000000000000000000012111C
:1001C000100000000000000000000000000000001F
:1001D00000000000000000000000220025002800B0
:1001E0002B002E003100340002010000050108013F
:1001F0000B0100002100240027002A002D00300000
:10020000330001010000040107010A01050505058D
:10021000070508080808020202020A0A080804047E
:1002200004040101010101010101030303030303AC
:100230000303040707070C0C0C0C0C0C0C0C02023B
:10024000020206060606060606060B0B0B0B0B0B38
:100250000B0B0102102020080810204010204080C5
:10026000020102010804020101020408102040807A
:100270008040201008040201800402018040201008
:100280000804020108040201010204081020408051
:1002900001020408102040801B0B630911241FBEBB
:1002A000CFEFD1E2DEBFCDBF00E00CBF28E0ACE075
:1002B000B5E001C01D92A930B207E1F715E0A0E05A
:1002C000B2E0E8E5FEE100E00BBF02C007900D924E
:1002D000AC30B107D9F711E0CDE4D1E000E006C0C1
:1002E00021970109802FFE010E94000FCC34D10715
:1002F00080E00807A9F70E9475090C94E20C0C94A1
:100300000000CF93DF9300D00F92CDB7DEB73FB799
:10031000F8948091700690917106A0917206B09148
:10032000730626B5A89B05C02F3F19F00196A11DA5
:10033000B11D3FBFBA2FA92F982F8827820F911D7B
:10034000A11DB11D9C01AD0162E0220F331F441FAE
:10035000551F6A95D1F7CA01B9010F900F900F9000
:100360000F90DF91CF9108958F929F92AF92BF929D
:10037000CF92DF92EF92FF92CF93DF9300D00F9254
:10038000CDB7DEB74B015C010E9481016B017C019E
:100390000E948101DC01CB018C199D09AE09BF09C6
:1003A000883E9340A105B10598F321E0821A910897
:1003B000A108B10888EEC80E83E0D81EE11CF11C2C
:1003C00081149104A104B10419F70F900F900F90BC
:1003D0000F90DF91CF91FF90EF90DF90CF90BF9083
:1003E000AF909F908F9008958130910539F0880FDC
:1003F000991F880F991F05970197F1F70895789431
:1004000084B5826084BD84B5816084BD85B5826019
:1004100085BD85B5816085BDEEE6F0E080818160B7
:100420008083E1E8F0E010828081826080838081B7
:1004300081608083E0E8F0E0808181608083E1EB8F
:10044000F0E0808184608083E0EBF0E08081816077
:100450008083E1E9F0E08081826080838081816037
:100460008083E0E9F0E0808181608083E1EAF0E070
:10047000808182608083808181608083E0EAF0E017
:10048000808181608083E1E2F1E08081826080830D
:10049000808181608083E0E2F1E0808181608083FF
:1004A000EAE7F0E0808184608083808182608083DD
:1004B0008081816080838081806880831092C10008
:1004C0000895CF93DF9390E0FC01EE5AFD4F249105
:1004D000845F9D4FFC0184918823D1F090E0880FC8
:1004E000991FFC01EE50FE4FA591B491FC01E8521A
:1004F000FE4FC591D4919FB7623069F4F8943C9156
:10050000822F809583238C938881822B88839FBF41
:10051000DF91CF910895F8948C91822B8C93F7CF33
:100520008150823108F048C0E82FF0E08827E65E6D
:10053000F04F8F4F0C94000F809180008F77809345
:1005400080000895809180008F7DF9CF8091800098
:10055000877FF5CF84B58F7784BD089584B58F7D6F
:10056000FBCF8091B0008F778093B0000895809189
:10057000B0008F7DF9CF809190008F7780939000AD
:100580000895809190008F7DF9CF80919000877FB2
:10059000F5CF8091A0008F778093A000089580917F
:1005A000A0008F7DF9CF8091A000877FF5CF80914B
:1005B00020018F77809320010895809120018F7D05
:1005C000F9CF80912001877FF5CF1F93CF93DF93E1
:1005D000162F282F30E0F901EE56FE4F8491F901D5
:1005E000EE5AFD4FD491F901E45FFD4FC491CC2345
:1005F000A1F081110E949002EC2FF0E0EE0FFF1F9E
:10060000E852FE4FA591B4919FB7F8948C911111C7
:1006100008C0D095D823DC939FBFDF91CF911F9165
:1006200008958D2B8C93F8CFCF93DF93282F30E054
:10063000F901EE56FE4F8491F901EE5AFD4FD49127
:10064000F901E45FFD4FC491CC2379F081110E9440
:100650009002EC2FF0E0EE0FFF1FE858FE4FA5913F
:10066000B491EC91ED2381E009F480E090E0DF911A
:10067000CF910895FC01848DDF01A80FB11DA35A0D
:10068000BF4F2C91848D90E001968F739927848FB2
:10069000A689B7892C93A089B1898C9183708064D5
:1006A0008C93938D848D981306C00288F389E02D76
:1006B00080818F7D80830895FC01818D228D90E063
:1006C000805C9F4F821B91098F739927089583ED5A
:1006D00095E00E945C039C0181E0232B09F480E0FB
:1006E000089580E090E0892B29F00E946703811132
:1006F0000E94000080E090E0892B49F080E090E0CB
:10070000892B29F00E94000081110E94000080E0E6
:1007100090E0892B49F080E090E0892B29F00E943D
:10072000000081110E94000080E090E0892B49F0D8
:1007300080E090E0892B29F00E94000081110C9448
:1007400000000895FC01918D828D981731F0828D03
:10075000E80FF11D858D90E008958FEF9FEF0895CC
:10076000FC01918D828D981761F0828DDF01A80FB9
:10077000B11D5D968C91928D9F5F9F73928F90E0DB
:1007800008958FEF9FEF0895FC01538D448D252F21
:1007900030E0842F90E0821B930B541710F0CF961B
:1007A000089501970895CF93DF93EC01888D81110F
:1007B0000FC0DF91CF9108950FB607FC0DC08C914B
:1007C00085FF08C0808185FF03C0CE010E943A03E7
:1007D000AA89BB89E889F9898C9185FDEDCF808153
:1007E00086FFEACFE6CFEF92FF920F931F93CF934E
:1007F000DF93EC01F62E81E0888F9B8D8C8D981312
:100800001AC0E889F989808185FF15C09FB7F894DF
:10081000EE89FF896083E889F9898081837080642B
:1008200080839FBF81E090E0DF91CF911F910F9176
:10083000FF90EF9008950B8D10E00F5F1F4F0F7327
:100840001127E02E8C8D8E1579F08B8DFE01E80F2F
:10085000F11DE35AFF4FF0829FB7F8940B8FEA899E
:10086000FB8980818062DCCF0FB607FCEBCFE88983
:10087000F989808185FFE6CFCE010E943A03E2CF5D
:100880000895089590E080E008950895CF92DF9252
:10089000EF92FF920F931F93CF93DF937C016A0136
:1008A00010E000E00C151D0551F4C801DF91CF9157
:1008B0001F910F91FF90EF90DF90CF900895EB0183
:1008C000D701ED91FC910190F081E02D6991C70174
:1008D0001995892B51F30F5F1F4FBE01E3CF809114
:1008E000C4059091C505891B990B08959091C50584
:1008F0008091C4052FEF3FEF981748F4E92FF0E0FF
:10090000E058FA4F208130E09F5F9093C505C90100
:100910000895E091C5058091C405E81730F4F0E032
:10092000E058FA4F808190E008958FEF9FEF08958F
:10093000089510927F0581E080937E0510927D05D9
:1009400061E084E10E94E50261E085E10E94E50248
:10095000E9EBF0E080818E7F808380818D7F8083D2
:1009600088E48093B80085E48093BC0008952091CA
:100970007C05260F3327331F21323105E4F4209103
:100980007F05FC0190E080E0243061F082E0089572
:1009900030917C052191DC01A45ABA4FA30FB11DFF
:1009A0002C9301968617A0F380917C05680F6093C5
:1009B0007C0580E0089581E00895CF93DF930F9246
:1009C000CDB7DEB7FC0169838091A0058823F1F0E3
:1009D0008091C205803250F081E090E09383828361
:1009E00090E080E00F90DF91CF9108958091C30552
:1009F000E82FF0E0EF55FA4F998190838F5F809355
:100A0000C3058093C20581E090E0ECCF61E0CE01A8
:100A100001960E94B704F7CFCF92DF92EF92FF9238
:100A20000F931F93CF93DF937C01CB018A01209119
:100A3000A0052223D9F0EB016B01C40ED51ECC1505
:100A4000DD0551F4C801DF91CF911F910F91FF9007
:100A5000EF90DF90CF9008956991D701ED91FC91CF
:100A60000190F081E02DC7011995E9CF642F0E9414
:100A7000B704E8CFCF93DF9391E090935605882396
:100A8000B9F0C091B800D091BA008091BC008A7BC7
:100A90008093BC0060E084E10E94E50260E085E1B3
:100AA0000E94E5020E949904D093BA00C093B80056
:100AB000DF91CF91089580E494E090930D058093A9
:100AC0000C05089581E494E09093100580930F0540
:100AD0000895CF92DF92EF92FF92CF93DF9300D0F1
:100AE00000D0CDB7DEB78D836E83613208F078C059
:100AF0000E9481016B017C0180917F0581117DC085
:100B000082E080937F0581E080937E058FEF809364
:100B10003205109254058E8180935305482F50E082
:100B200061EA75E083E395E00E94F00E10925505AE
:100B3000809155059D81990F982B90935505809133
:100B40007D05813009F092C010927D050E948101DF
:100B50006B017C01809155058093BB008091580505
:100B600090915905A0915A05B0915B05892B8A2B6C
:100B70008B2BE1F00E94810169837A838B839C83B4
:100B8000409158055091590560915A0570915B0547
:100B900089819A81AB81BC818C199D09AE09BF09FD
:100BA000481759076A077B0708F450C08091BC00BA
:100BB00083FDD0CF85EC8093BC000E9481016B0146
:100BC0007C0180917F05823009F452C0809132050A
:100BD0008F3F31F080913205803211F080913205E3
:100BE00026960FB6F894DEBF0FBECDBFDF91CF9132
:100BF000FF90EF90DF90CF900895809158059091ED
:100C00005905A0915A05B0915B05892B8A2B8B2B36
:100C100009F472CF0E94810169837A838B839C835C
:100C2000409158055091590560915A0570915B05A6
:100C300089819A81AB81BC818C199D09AE09BF095C
:100C4000481759076A077B0708F056CF8091570568
:100C500026960FB6F894DEBF0FBECDBFDF91CF91C1
:100C6000FF90EF90DF90CF900C943A0585EEA3CFE4
:100C70008091580590915905A0915A05B0915B0556
:100C8000892B8A2B8B2B09F49CCF0E9481016983CD
:100C90007A838B839C8340915805509159056091CC
:100CA0005A0570915B0589819A81AB81BC818C1951
:100CB0009D09AE09BF09481759076A077B0708F065
:100CC00080CFC4CFFC01848191E09093A0058093F4
:100CD000C1051092C3051092C2058385682BE0916F
:100CE000C605F091C7050190F081E02D86EC95E0F6
:100CF00019956091C2058091C1050E946905109205
:100D0000C3051092C2051092A00508951F93CF93BA
:100D1000DF93182FD92FC62F0E9462066C2F6460B4
:100D2000812F9D2F0E94620681E090E00E94F401D5
:100D30006C2F6B7F812F9D2F0E94620682E390E0D3
:100D4000DF91CF911F910C94F4010F931F93CF93D8
:100D5000DF938C01D62FC42F607F642B0E94860600
:100D600080E1D89FB00111246C2BC801DF91CF9195
:100D70001F910F910C948606CF93DF9300D000D083
:100D80000F920F92CDB7DEB798E0EEE0F2E0DE0111
:100D9000119601900D929A95E1F79091010898179C
:100DA00008F48FEF90E0880F991FE1E0F0E0EC0F7E
:100DB000FD1FE80FF91F6081606840E089EF97E050
:100DC00028960FB6F894DEBF0FBECDBFDF91CF914E
:100DD0000C94A50641E00E94A50681E090E00895EC
:100DE00040E061E089EF97E00E94A50680ED97E082
:100DF0000C94F401BC01FC0101900020E9F731974B
:100E0000AF01481B590BE091F907F091FA070280F6
:100E1000F381E02D89EF97E0199485ED8093BC0074
:100E20008091580590915905A0915A05B0915B05A4
:100E30000796A11DB11D23E0B695A79597958795B7
:100E40002A95D1F72091BC0024FD03C010927F05A4
:100E50000895409158055091590560915A05709137
:100E60005B05452B462B472B69F30097A105B10580
:100E700041F025E32A95F1F700000197A109B10996
:100E8000E1CF809157050C943A05EF92FF920F93B2
:100E90001F93CF93DF93EC017B018A0188819981B5
:100EA000009729F02A813B812417350710F5B801F6
:100EB0006F5F7F4F0E940D0EFC01009789F48881BF
:100EC0009981009719F5198218821D821C821B8254
:100ED0001A82DF91CF911F910F91FF90EF900895AB
:100EE000998388831B830A838C819D81892B09F4D4
:100EF00010821D830C83B70188819981DF91CF9186
:100F00001F910F91FF90EF900C94F90E0E947B0DB2
:100F1000DACFCF93DF93FC01118210821382128209
:100F200015821482EB0109900020E9F72197AE01A8
:100F3000461B570BDF91CF910C9445071F921FB6AC
:100F40001F9211242F933F938F939F93AF93BF933F
:100F50008091750690917606A0917706B0917806FB
:100F60003091740623E0230F2D3750F50196A11D13
:100F7000B11D209374068093750690937606A09316
:100F80007706B09378068091700690917106A091D3
:100F90007206B09173060196A11DB11D8093700673
:100FA00090937106A0937206B0937306BF91AF91B0
:100FB0009F918F913F912F911F901FBE1F90189569
:100FC00026E8230F0296A11DB11DD3CF2F932FB773
:100FD0002F932BB72F938F939F93EF93FF93E091D2
:100FE000E305F091E4058081E091E905F091EA05DF
:100FF00082FD1BC090818091EC058F5F8F732091E3
:10100000ED05821741F0E091EC05F0E0ED52FA4F6A
:10101000958F8093EC05FF91EF919F918F912F9188
:101020002BBF2F912FBF2F9118958081F4CF1F9246
:101030000F920FB60F9211240BB60F922F933F937E
:101040004F935F936F937F938F939F93AF93BF93D0
:10105000EF93FF9383ED95E00E943A03FF91EF91A8
:10106000BF91AF919F918F917F916F915F914F91C0
:101070003F912F910F900BBE0F900FBE0F901F90BE
:1010800018951F920F920FB60F9211240BB60F9264
:101090002F933F934F935F936F937F938F939F9380
:1010A000AF93BF93EF93FF939091B900892F887FFF
:1010B000803509F4C3C008F044C0803309F4B9C0D6
:1010C000A8F5883111F1E0F4883009F4AAC0803124
:1010D00009F4A7C0882309F4F3C0FF91EF91BF91F1
:1010E000AF919F918F917F916F915F914F913F91C0
:1010F0002F910F900BBE0F900FBE0F901F90189561
:10110000803209F496C0883241F79091540580915D
:101110005305981780F5E091540581E08E0F809378
:101120005405F0E0ED5CFA4F80817DC0803409F415
:1011300091C0883409F47FC0883379F680933205F2
:101140006EC0803A09F4A0C0C0F5803809F48AC0A6
:1011500058F5803619F1E0F4883509F0BECFE091FA
:10116000540581E08E0F809354058091BB00F0E020
:10117000ED5CFA4F808380917E0581115CC081E037
:1011800080937D0584EA8093BC0010927F05A5CFF3
:10119000803721F0987E983609F09FCF83E08093C6
:1011A0007F051092310541C0803909F45BC0987EFB
:1011B000983809F092CF85E839C0883BD9F058F5C6
:1011C000883A19F0803B09F088CF84E080937F054E
:1011D00010920E0510927C05E0910C05F0910D0522
:1011E000199580917C05811105C081E080937C0573
:1011F00010925C05E0910E0581E08E0F80930E0544
:10120000F0E0E45AFA4F80818093BB0090910E0584
:1012100080917C0523C0907F903C09F05ECF85ECE7
:10122000B2CF809155058093BB0085EC8093BC00C4
:1012300054CF809332050E940D074FCFE0915405A3
:1012400081E08E0F809354058091BB00F0E0ED5C4F
:10125000FA4F80839091540580915305981708F0B8
:10126000AACFE3CF80913105803208F0A4CFE0917E
:10127000310581E08E0F809331058091BB00F0E055
:10128000EF5EFA4F8083D1CF85EC8093BC00109243
:101290007F0580913105803230F4E0913105F0E036
:1012A000EF5EFA4F10826091310570E0E0910F051A
:1012B000F091100581E195E01995109231050DCF5F
:1012C00010923205B8CFCF93DF93C9EFD7E02697BE
:1012D00088819981009711F00E947B0D86E0C937C3
:1012E000D807A9F7DF91CF91089500D000D00F92D1
:1012F0000F92CDB7DEB70E94FF0161E086E10E9448
:10130000610261E088E10E94610261E081E30E9484
:10131000610261E08FE20E9461024AE5642E42E0D0
:10132000742E0AE312E0F80180810E5F1F4F62E025
:101330000E94610260167106B1F71092C505109205
:10134000C4051092C3051092C2050E9499040E9420
:101350005B050E9462051092FE07809103088230AF
:1013600018F098E09093FE078093010862E370E024
:1013700080E090E00E94B4016091040889EF97E05A
:101380000E94620668EE73E080E090E00E94B40183
:1013900060E389EF97E00E94860684E991E10E946C
:1013A000F40160E389EF97E00E94860684E991E109
:1013B0000E94F40160E389EF97E00E94860686E9C7
:1013C00090E00E94F40160E289EF97E00E948606B7
:1013D0006091FE07606240E089EF97E00E94A506F9
:1013E00084E08093FF0740E06CE089EF97E00E9483
:1013F000A5060E94F00612E01093000840E066E0A7
:1014000089EF97E00E94A50640E062E089EF97E04F
:101410000E94A50680ED97E00E94F40188E0809389
:10142000040860E089EF97E00E946206E091E3051E
:10143000F091E4051083E091DF05F091E005108262
:10144000E091E105F091E2058FEC80831092EB05CD
:10145000E091E705F091E80586E08083E091E505FD
:10146000F091E605808180618083E091E505F0914F
:10147000E605808188608083E091E505F091E605CE
:10148000808180688083E091E505F091E6058081A8
:101490008F7D808328E0422E22E0522E32E6232EDA
:1014A00032E0332ECE0101968F8398878091D2054A
:1014B000811149C00E94F00680E00E94BC068EE6C1
:1014C00092E00E94FA0640E060E489EF97E00E9413
:1014D000A50600E012E0F80161918F01E091F907A3
:1014E000F091FA070190F081E02D89EF97E01995CE
:1014F0004016510681F781E00E94BC0660E089EF4A
:1015000097E00E94EA068FE792E00E94FA0668E8F8
:1015100073E180E090E00E94B4010E94F00680E058
:101520000E94BC068EE892E00E94FA0681E00E94CA
:10153000BC0688E992E00E94FA0668E873E180E060
:1015400090E00E94B4010AE512E099E7A92E96E026
:10155000B92E61E086E10E94E50261E088E10E9427
:10156000E50261E081E30E94E50261E08FE20E9412
:10157000E502F80180810E5F1F4F60E00E94E502E6
:1015800065018AE3E82E82E0F82EF7018081F2E01F
:10159000EF0EF11C0E941403892BE1F581E080938A
:1015A000D2051A8219821C821B821E821D82F601BC
:1015B000608171816115710531F0448155818F81A0
:1015C00098850E9445070E94F00680E00E94BC06B4
:1015D00088EA92E00E94FA0681E00E94BC068980B7
:1015E0009A804D815E81E091F907F091FA070280BF
:1015F000F381E02DB40189EF97E0199581149104EE
:1016000019F0C4010E947B0D6CE271E080E090E073
:101610000E94B401F6E0CF0ED11C6E147F0409F0D5
:10162000B4CF80E6A80EB11C2016310609F091CF88
:101630000E9471033BCFE6ECF5E01382128288EE44
:1016400093E0A0E0B0E084839583A683B7832AE18A
:1016500032E031832083E3EDF5E01382128284834C
:101660009583A683B7838CE292E09183808385EC97
:1016700090E09587848784EC90E09787868780EC5C
:1016800090E0918B808B81EC90E0938B828B82EC4D
:1016900090E0958B848B86EC90E0978B868B118EF7
:1016A000128E138E148EE9EFF7E01382128286E613
:1016B00092E09183808387E2848380E1818782E066
:1016C0008287138666EB72E089E796E00E948907BD
:1016D00060EC72E08FE796E00E9489076AEC72E0A6
:1016E00085E896E00E94890763ED72E08BE896E05A
:1016F0000E9489076CED72E081E996E00E948907FB
:1017000066EE72E087E996E00E94890760EF72E07A
:101710008DE996E00E9489076AEF72E083EA96E01D
:101720000E94890764E073E089EA96E00E948907D5
:101730006DE073E08FEA96E00E94890766E173E04E
:1017400085EB96E00E9489076AE173E08BEB96E0F7
:101750000E94890764E273E081EC96E00E948907A9
:101760006DE273E087EC96E00E94890767E373E01F
:101770008DEC96E00E94890761E473E083ED96E0CA
:101780000E9489076AE473E089ED96E00E94890768
:1017900064E573E08FED96E00E9489076EE573E0E3
:1017A00085EE96E00E94890767E673E08BEE96E08F
:1017B0000E94890760E773E081EF96E00E94890745
:1017C0006AE773E087EF96E00E94890764E873E0B8
:1017D0008DEF96E00E9489076DE873E083E097E063
:1017E0000E94890766E973E089E097E00E94890713
:1017F00060EA73E08FE097E00E9489076AEA73E08D
:1018000085E197E00E94890764EB73E08BE197E044
:101810000E9489076EEB73E081E297E00E948907DE
:1018200067EC73E087E297E00E94890761ED73E05F
:101830008DE297E00E9489076AED73E083E397E009
:101840000E94890764EE73E089E397E00E948907AC
:101850006DEE73E08FE397E00E94890766EF73E017
:1018600085E497E00E94890760E074E08BE497E0EC
:101870000E9489076AE074E081E597E00E94890789
:1018800064E174E087E597E00E9489076EE174E007
:101890008DE597E00E94890767E274E083E697E0B0
:1018A0000E94890760E374E089E697E00E94890757
:1018B0006AE374E08FE697E00E94890764E474E0CD
:1018C00085E797E00E9489076EE474E08BE797E074
:1018D0000E94890767E574E081E897E00E94890724
:1018E00061E674E087E897E00E9489076BE674E0A0
:1018F0008DE897E00E94890764E774E083E997E048
:101900000E9489076EE774E089E997E00E948907E1
:1019100067E874E08FE997E00E94890760E974E066
:1019200085EA97E00E9489076AE974E08BEA97E00C
:101930000E94890764EA74E081EB97E00E948907BE
:101940006DEA74E087EB97E00E94890766EB74E02C
:101950008DEB97E00E94890760EC74E083EC97E0E0
:101960000E9489076AEC74E089EC97E00E9489077D
:1019700063ED74E08FEC97E00E94890766E173E005
:1019800085ED97E00E9489076CED74E08BED97E0A0
:101990000E94890765EE74E081EE97E00E94890756
:1019A0006FEE74E087EE97E00E94890768EF74E0BD
:1019B0008DEE97E00E94890762E075E083EF97E083
:1019C0000C948907F8940C94080F0F931F93CF93EE
:1019D000DF939C01029710F422E030E0E0910508CB
:1019E000F091060890E080E0B0E0A0E0309791F43C
:1019F000009709F445C0821B930B84309105B8F51C
:101A00008A819B816115710569F1FB019383828352
:101A1000FE0111C040815181028113814217530799
:101A2000F0F04217530799F4109761F012960C9357
:101A3000129713961C933296CF01DF91CF911F918D
:101A40000F9108950093050810930608F4CF0097AE
:101A500019F04817590718F4CA01BD01EF01DF0159
:101A6000F801C4CF9093060880930508D1CFFE01FA
:101A7000E80FF91F21933193029799838883DCCF74
:101A80008091070890910808892B41F480910A02FF
:101A900090910B02909308088093070880910802A8
:101AA00090910902009741F48DB79EB740910C02C6
:101AB00050910D02841B950B409107085091080826
:101AC0004817590708F0B8CF841B950B8217930766
:101AD00008F4B2CFB9016E5F7F4F8617970708F4FD
:101AE000ABCF640F751F7093080860930708FA0165
:101AF00021933193A1CFCF93DF939C010097E9F01D
:101B0000FC01329713821282C0910508D091060819
:101B1000DE0190E080E02097A1F480819181280F80
:101B2000391F80910708909108088217930709F0E0
:101B300067C0F0930808E0930708DF91CF910895FC
:101B4000DA01AE17BF0708F041C012964D915C91C3
:101B50001397CD014115510599F7DC011396FC93BC
:101B6000EE9312974D915D91A40FB51FEA17FB07F5
:101B700081F4208131812E5F3F4F240F351FDC011E
:101B800011963C932E932281338113963C932E938E
:101B90001297B0E0A0E08A819B810097B1F5FE0129
:101BA00081919191E80FF91F8091070890910808A1
:101BB0008E179F0711F6109759F51092060810928C
:101BC0000508D0930808C0930708B7CFB383A28352
:101BD00040815181240F351FA217B30771F44E5F66
:101BE0005F4F2D913C911197240F351F3183208336
:101BF00012962D913C9133832283009709F0ADCF4B
:101C0000F0930608E093050898CFDE01EC01C3CFFE
:101C100013961C921E921297D4CF4F925F926F929E
:101C20007F928F929F92AF92BF92CF92DF92EF926C
:101C3000FF920F931F93CF93DF93EC01CB0120977B
:101C400091F4DF91CF911F910F91FF90EF90DF9072
:101C5000CF90BF90AF909F908F907F906F905F904C
:101C60004F900C94E50CFE01E60FF71F9E012250E9
:101C70003109E217F30708F4B0C0D9010D911C91A6
:101C800011970617170730F10530110588F0A801E4
:101C9000445051094617570758F0061B170B0250BE
:101CA0001109019311936D937C93CF010E947B0DD9
:101CB000CE01DF91CF911F910F91FF90EF90DF90B8
:101CC000CF90BF90AF909F908F907F906F905F90DC
:101CD0004F9008954B01801A910A5E01A00EB11E2B
:101CE000A0910508B0910608512C412CF12CE12C53
:101CF000109739F540910708509108084A155B057F
:101D000009F05DC04816590608F059C04091080214
:101D1000509109024115510541F44DB75EB76091EC
:101D20000C0270910D02461B570BE417F50708F0E3
:101D300054C0F0930808E0930708F9019183808369
:101D4000B7CF4D915C91119712966C9012971396A4
:101D50007C901397AA15BB0559F56A0162E0C60E7F
:101D6000D11CC814D90420F1B801681B790B640F89
:101D7000751FDB011296159780F062827382718362
:101D80006083D9018D939C93E114F10461F0D70134
:101D90001396FC93EE9312978BCFC8010296840F93
:101DA000951FF301EECFF0930608E093050880CF6E
:101DB0004416550608F42A017D01D30199CF0E94EB
:101DC000E50C7C01009749F0A801BE010E94F00ECD
:101DD000CE010E947B0DE7016BCFD0E0C0E068CF61
:101DE000FB01DC0102C001900D9241505040D8F738
:101DF0000895FB01DC0101900D920020E1F70895A8
:101E0000EE0FFF1F881F8BBF0790F691E02D1994EE
:101E100011E0CDE4D1E000E006C0802FFE010E9479
:101E2000000F2196011DCE34D10780E00807A9F7E5
:101E3000F894FFCFAA02AE029C02A202A602DC0224
:101E4000B102B702BB02C102C502C902CF02D3026E
:081E5000DC02D702DD02E10211
:101E58001F11151715111F000000090820000000A8
:101E680040001400540000000000DD040C0542048A
:101E780098046F047604890400000000F303460404
:101E8800C403D3035C03B003A2031A001C001E00A2
:101E9800200022002400260028002A002C002E0002
:101EA80030003200340035003300160018003100CD
:101EB8002F0000000000EA064604420445044D6174
:101EC80074726978205465737465722076310020C5
:101ED8005061747269636B2048656E657200506C5E
:101EE8007567696E20696E006D617472697820612A
:101EF8006E64207465737400486974206465746541
:101F0800637465643A00446F75626C652031320011
:101F180053696E676C6520313200446F75626C6579
:101F280020390053696E676C65203900446F75620B
:101F38006C652031340053696E676C65203134005C
:101F4800446F75626C652031310053696E676C654A
:101F580020313100446F75626C6520380053696E1A
:101F6800676C652038004E2F4100547269706C65AB
:101F780020313200547269706C65203900547269DE
:101F8800706C6520313400547269706C6520313191
:101F980000547269706C65203800446F75626C6516
:101FA8002031360053696E676C6520313600446F06
:101FB80075626C6520370053696E676C6520370061
:101FC800446F75626C652031390053696E676C65C2
:101FD80020313900446F75626C6520330053696E97
:101FE800676C65203300446F75626C65203137007B
:101FF80053696E676C6520313700446F75626C6594
:1020080020323500547269706C6520313600547284
:1020180069706C65203700547269706C65203139BD
:1020280000547269706C65203300547269706C6575
:1020380020313700446F75626C6520320053696E39
:10204800676C65203200446F75626C65203135001D
:1020580053696E676C6520313500446F75626C6535
:102068002031300053696E676C6520313000446F51
:1020780075626C6520360053696E676C65203600A2
:10208800446F75626C652031330053696E676C6507
:102098002031330053696E676C6520323500547205
:1020A80069706C65203200547269706C6520313536
:1020B80000547269706C6520313000547269706C1C
:1020C80065203600547269706C6520313300446FA6
:1020D80075626C6520340053696E676C6520340046
:1020E800446F75626C652031380053696E676C65A2
:1020F80020313800446F75626C6520310053696E79
:10210800676C65203100446F75626C652032300061
:1021180053696E676C6520323000446F75626C6578
:1021280020350053696E676C6520350054726970FC
:102138006C65203400547269706C65203138005425
:102148007269706C65203100547269706C65203258
:0C2158003000547269706C652035000086
:00000001FF
