:100000000C9463000C948B000C948B000C948B006C
:100010000C948B000C948B000C948B000C948B0034
:100020000C948B000C948B000C948B000C948B0024
:100030000C948B000C948B000C948B000C948B0014
:100040000C9434060C948B000C947C060C94A9063A
:100050000C948B000C948B000C948B000C948B00F4
:100060000C94CF060C948B000000000023002600A7
:10007000290000000008000201000003040700003E
:1000800000000000000000000000250028002B00F8
:1000900000000000240027002A00040404040404D3
:1000A0000404020202020202030303030303010227
:1000B00004081020408001020408102001020408F6
:1000C0001020B109EC0711241FBECFEFD8E0DEBF2E
:1000D000CDBF27E0ACE0B4E001C01D92A930B2076B
:1000E000E1F714E0A0E0B1E0E8E7FBE102C0059031
:1000F0000D92AC30B107D9F710E0C2E6D0E004C0F1
:100100002197FE010E94A90DC136D107C9F70E94AF
:10011000FE070C94780B0C940000CF93DF9300D073
:1001200000D0CDB7DEB73FB7F894809170059091BD
:100130007105A0917205B091730526B5A89B05C005
:100140002F3F19F00196A11DB11D3FBFBA2FA92F56
:10015000982F8827820F911DA11DB11D9C01AD0113
:1001600062E0220F331F441F551F6A95D1F7CA0161
:10017000B9010F900F900F900F90DF91CF910895DC
:100180008F929F92AF92BF92CF92DF92EF92FF92A7
:10019000CF93DF9300D000D0CDB7DEB74B015C0129
:1001A0000E948D006B017C010E948D00DC01CB015F
:1001B0008C199D09AE09BF09883E9340A105B10580
:1001C00098F321E0821A9108A108B10888EEC80EC0
:1001D00083E0D81EE11CF11C81149104A104B10438
:1001E00019F70F900F900F900F90DF91CF91FF9024
:1001F000EF90DF90CF90BF90AF909F908F90089539
:100200008130910539F0880F991F880F991F059744
:100210000197F1F70895789484B5826084BD84B520
:10022000816084BD85B5826085BD85B5816085BDF1
:10023000EEE6F0E0808181608083E1E8F0E010820A
:10024000808182608083808181608083E0E8F0E04B
:10025000808181608083E1EBF0E080818460808335
:10026000E0EBF0E0808181608083EAE7F0E080816C
:1002700084608083808182608083808181608083CC
:100280008081806880831092C1000895CF93DF93AE
:1002900090E0FC01E255FF4F249186569F4FFC01F0
:1002A00084918823D1F090E0880F991FFC01E057DA
:1002B000FF4FA591B491FC01EA57FF4FC591D4912E
:1002C0009FB7623069F4F8943C91822F8095832324
:1002D0008C938881822B88839FBFDF91CF91089573
:1002E000F8948C91822B8C93F7CF843099F038F46A
:1002F0008230C1F0833041F0813081F00895873041
:10030000A1F08830C1F00895809180008F778093AC
:1003100080000895809180008F7DF9CF84B58F771C
:1003200084BD089584B58F7DFBCF8091B0008F7719
:100330008093B00008958091B0008F7DF9CF1F9316
:10034000CF93DF93162F282F30E0F901EE58FF4F9F
:100350008491F901E255FF4FD491F901E656FF4F20
:10036000C491CC23A1F081110E947501EC2FF0E023
:10037000EE0FFF1FEA57FF4FA591B4919FB7F89476
:100380008C91111108C0D095D823DC939FBFDF91C9
:10039000CF911F9108958D2B8C93F8CFCF93DF933E
:1003A000282F30E0F901EE58FF4F8491F901E25512
:1003B000FF4FD491F901E656FF4FC491CC2379F059
:1003C00081110E947501EC2FF0E0EE0FFF1FE8593C
:1003D000FF4FA591B491EC91ED2381E009F480E009
:1003E00090E0DF91CF910895FC01848DDF01A80F8B
:1003F000B11DA35ABF4F2C91848D90E001968F734D
:100400009927848FA689B7892C93A089B1898C916B
:10041000837080648C93938D848D981306C00288BA
:10042000F389E02D80818F7D80830895FC01818D8B
:10043000228D90E0805C9F4F821B91098F739927DA
:10044000089583ED94E00E9416029C0181E0232B25
:1004500009F480E0089580E090E0892B29F00E9463
:10046000210281110C9400000895FC01918D828D70
:10047000981731F0828DE80FF11D858D90E0089579
:100480008FEF9FEF0895FC01918D828D981761F099
:10049000828DDF01A80FB11D5D968C91928D9F5FBB
:1004A0009F73928F90E008958FEF9FEF0895FC0166
:1004B000538D448D252F30E0842F90E0821B930BC9
:1004C000541710F0CF96089501970895CF93DF93B6
:1004D000EC01888D81110FC0DF91CF9108950FB687
:1004E00007FC0DC08C9185FF08C0808185FF03C08B
:1004F000CE010E94F401AA89BB89E889F9898C910F
:1005000085FDEDCF808186FFEACFE6CFEF92FF92A7
:100510000F931F93CF93DF93EC01F62E81E0888F2A
:100520009B8D8C8D98131AC0E889F989808185FF8D
:1005300015C09FB7F894EE89FF896083E889F9892F
:1005400080818370806480839FBF81E090E0DF9131
:10055000CF911F910F91FF90EF9008950B8D10E0B8
:100560000F5F1F4F0F731127E02E8C8D8E1579F0C2
:100570008B8DFE01E80FF11DE35AFF4FF0829FB70C
:10058000F8940B8FEA89FB8980818062DCCF0FB6FB
:1005900007FCEBCFE889F989808185FFE6CFCE01A2
:1005A0000E94F401E2CF0895089590E080E008955C
:1005B0000895CF92DF92EF92FF920F931F93CF9304
:1005C000DF937C016A0110E000E00C151D0551F479
:1005D000C801DF91CF911F910F91FF90EF90DF90B5
:1005E000CF900895EB01D701ED91FC910190F0813E
:1005F000E02D6991C7010995892B51F30F5F1F4FBA
:10060000BE01E3CF8091C4049091C504891B990B6E
:1006100008959091C5048091C4042FEF3FEF98177F
:1006200048F4E92FF0E0E058FB4F208130E09F5F75
:100630009093C504C9010895E091C5048091C40454
:10064000E81730F4F0E0E058FB4F808190E0089527
:100650008FEF9FEF0895089510927F0481E08093BB
:100660007E0410927D0461E082E10E949F0161E0BE
:1006700083E10E949F01E9EBF0E080818E7F80831F
:1006800080818D7F808388E48093B80085E48093A7
:10069000BC00089520917C04260F3327331F21329C
:1006A0003105E4F420917F04FC0190E080E02430E7
:1006B00061F082E0089530917C042191DC01A45A1C
:1006C000BB4FA30FB11D2C9301968617A0F3809109
:1006D0007C04680F60937C0480E0089581E00895B5
:1006E000CF93DF930F92CDB7DEB7FC016983809182
:1006F000A0048823F1F08091C204803250F081E0A0
:1007000090E09383828390E080E00F90DF91CF911F
:1007100008958091C304E82FF0E0EF55FB4F9981D5
:1007200090838F5F8093C3048093C20481E090E044
:10073000ECCF61E0CE0101960E944A03F7CFCF9241
:10074000DF92EF92FF920F931F93CF93DF937C0181
:10075000CB018A012091A0042223D9F0EB016B0187
:10076000C40ED51ECC15DD0551F4C801DF91CF9123
:100770001F910F91FF90EF90DF90CF9008956991B6
:10078000D701ED91FC910190F081E02DC701099511
:10079000E9CF642F0E944A03E8CFCF93DF9391E023
:1007A000909356048823B9F0C091B800D091BA0054
:1007B0008091BC008A7B8093BC0060E082E10E9453
:1007C0009F0160E083E10E949F010E942C03D0936F
:1007D000BA00C093B800DF91CF91089583ED92E005
:1007E00090930D0480930C04089584ED92E090930F
:1007F000100480930F040895CF92DF92EF92FF923E
:10080000CF93DF9300D000D000D0CDB7DEB78D837B
:100810006E83613208F078C00E948D006B017C010C
:1008200080917F0481117DC082E080937F0481E00C
:1008300080937E048FEF80933204109254048E8153
:1008400080935304482F50E061EA74E083E394E01E
:100850000E94620D10925504809155049D81990F5C
:10086000982B9093550480917D04813009F092C0BB
:1008700010927D040E948D006B017C0180915504D3
:100880008093BB008091580490915904A0915A0420
:10089000B0915B04892B8A2B8B2BE1F00E948D0099
:1008A00069837A838B839C834091580450915904C7
:1008B00060915A0470915B0489819A81AB81BC81FB
:1008C0008C199D09AE09BF09481759076A077B07AC
:1008D00008F450C08091BC0083FDD0CF85EC80939C
:1008E000BC000E948D006B017C0180917F048230EE
:1008F00009F452C0809132048F3F31F0809132046C
:10090000803211F08091320426960FB6F894DEBF43
:100910000FBECDBFDF91CF91FF90EF90DF90CF90D2
:1009200008958091580490915904A0915A04B0916F
:100930005B04892B8A2B8B2B09F472CF0E948D00CC
:1009400069837A838B839C83409158045091590426
:1009500060915A0470915B0489819A81AB81BC815A
:100960008C199D09AE09BF09481759076A077B070B
:1009700008F056CF8091570426960FB6F894DEBF44
:100980000FBECDBFDF91CF91FF90EF90DF90CF9062
:100990000C94CD0385EEA3CF809158049091590417
:1009A000A0915A04B0915B04892B8A2B8B2B09F4FC
:1009B0009CCF0E948D0069837A838B839C834091B6
:1009C00058045091590460915A0470915B048981D4
:1009D0009A81AB81BC818C199D09AE09BF0948176A
:1009E00059076A077B0708F080CFC4CFFC018481D8
:1009F00091E09093A0048093C1041092C3041092DC
:100A0000C2048385682BE091C604F091C70401906D
:100A1000F081E02D86EC94E009956091C20480910C
:100A2000C1040E94FC031092C3041092C2041092ED
:100A3000A00408951F93CF93DF93182FD92FC62FAB
:100A40000E94F6046C2F6460812F9D2F0E94F60493
:100A500081E090E00E9400016C2F6B7F812F9D2F21
:100A60000E94F60482E390E0DF91CF911F910C94F5
:100A700000010F931F93CF93DF938C01D62FC42FC8
:100A8000607F642B0E941A0580E1D89FB001112479
:100A90006C2BC801DF91CF911F910F910C941A0517
:100AA000CF93DF93CDB7DEB728970FB6F894DEBFAC
:100AB0000FBECDBF98E0EEE0F1E0DE0111960190AF
:100AC0000D929A95E1F790910107981708F48FEF2E
:100AD00090E0880F991FE1E0F0E0EC0FFD1FE80FB8
:100AE000F91F6081606840E089EF96E028960FB6B4
:100AF000F894DEBF0FBECDBFDF91CF910C943905C6
:100B000041E00E94390581E090E0089540E061E015
:100B100089EF96E00E94390580ED97E00C94000182
:100B2000BC01FC0101900020E9F73197AF01481B9F
:100B3000590BE091F906F091FA060280F381E02D5D
:100B400089EF96E0099485ED8093BC00809158046C
:100B500090915904A0915A04B0915B040796A11D8D
:100B6000B11D23E0B695A795979587952A95D1F75E
:100B70002091BC0024FD03C010927F040895409191
:100B800058045091590460915A0470915B04452BAC
:100B9000462B472B69F30097A105B10541F025E3EA
:100BA0002A95F1F700000197A109B109E1CF8091E1
:100BB00057040C94CD03EF92FF920F931F93CF93A2
:100BC000DF93EC017B018A0188819981009729F0EC
:100BD0002A813B812417350710F5B8016F5F7F4FDD
:100BE0000E94A30CFC01009789F4888199810097E9
:100BF00019F5198218821D821C821B821A82DF91CC
:100C0000CF911F910F91FF90EF9008959983888362
:100C10001B830A838C819D81892B09F410821D839B
:100C20000C83B70188819981DF91CF911F910F913A
:100C3000FF90EF900C946B0D0E94110CDACFCF93C4
:100C4000DF93FC01118210821382128215821482BA
:100C5000EB0109900020E9F72197AE01461B570BE5
:100C6000DF91CF910C94DB051F921FB61F921124C8
:100C70002F933F938F939F93AF93BF93809175056D
:100C800090917605A0917705B09178053091740523
:100C900023E0230F2D3750F50196A11DB11D2093A0
:100CA00074058093750590937605A0937705B093AE
:100CB00078058091700590917105A0917205B091B1
:100CC00073050196A11DB11D809370059093710568
:100CD000A0937205B0937305BF91AF919F918F91CF
:100CE0003F912F911F901FBE1F90189526E8230F4C
:100CF0000296A11DB11DD3CF2F932FB72F938F93A2
:100D00009F93EF93FF93E091E304F091E4048081DB
:100D1000E091E904F091EA0482FD19C0908180918C
:100D2000EC048F5F8F732091ED04821741F0E09106
:100D3000EC04F0E0ED52FB4F958F8093EC04FF91B3
:100D4000EF919F918F912F912FBF2F9118958081B7
:100D5000F6CF1F920F920FB60F9211242F933F934D
:100D60004F935F936F937F938F939F93AF93BF93B3
:100D7000EF93FF9383ED94E00E94F401FF91EF91D4
:100D8000BF91AF919F918F917F916F915F914F91A3
:100D90003F912F910F900FBE0F901F9018951F92AB
:100DA0000F920FB60F9211242F933F934F935F939F
:100DB0006F937F938F939F93AF93BF93EF93FF9323
:100DC0009091B900892F887F803509F4C0C008F060
:100DD00042C0803309F4B6C098F5883101F1D0F4EF
:100DE000883009F4A7C0803109F4A4C0882309F42D
:100DF000F0C0FF91EF91BF91AF919F918F917F9143
:100E00006F915F914F913F912F910F900FBE0F9077
:100E10001F901895803209F495C0883251F790914F
:100E2000540480915304981778F5E091540481E0BC
:100E30008E0F80935404F0E0ED5CFB4F80817CC00A
:100E4000803409F490C0883409F47EC0883389F670
:100E5000809332046DC0803A09F49FC0B8F58038A1
:100E600009F489C050F5803611F1D8F4883509F6B7
:100E7000E091540481E08E0F809354048091BB0074
:100E8000F0E0ED5CFB4F808380917E0481115CC0BB
:100E900081E080937D0484EA8093BC0010927F04FB
:100EA000A8CF803721F0987E983609F0A2CF83E052
:100EB00080937F041092310441C0803909F45BC0F3
:100EC000987E983809F095CF85E839C0883BD9F0ED
:100ED00058F5883A19F0803B09F08BCF84E0809375
:100EE0007F0410920E0410927C04E0910C04F091A7
:100EF0000D04099580917C04811105C081E08093E7
:100F00007C0410925C04E0910E0481E08E0F8093CB
:100F10000E04F0E0E45AFB4F80818093BB00909177
:100F20000E0480917C0423C0907F903C09F061CF37
:100F300085ECB2CF809155048093BB0085EC809303
:100F4000BC0057CF809332040E94A30552CFE0919A
:100F5000540481E08E0F809354048091BB00F0E034
:100F6000ED5CFB4F8083909154048091530498175B
:100F700008F0AACFE3CF80913104803208F0A4CFEB
:100F8000E091310481E08E0F809331048091BB00A9
:100F9000F0E0EF5EFB4F8083D1CF85EC8093BC0007
:100FA00010927F0480913104803230F4E09131045A
:100FB000F0E0EF5EFB4F10826091310470E0E09151
:100FC0000F04F091100481E194E00995109231042E
:100FD00010CF10923204B8CFCF93DF93C9EFD6E091
:100FE000269788819981009711F00E94110C85E065
:100FF000C937D807A9F7DF91CF910895CDB7DEB7EC
:1010000028970FB6F894DEBF0FBECDBF0E940B012C
:1010100061E086E10E94460161E088E10E944601AC
:1010200061E081E30E94460161E08FE20E94460197
:101030004AE5642E41E0742E0AE311E0F801808154
:101040000E5F1F4F62E00E94460160167106B1F705
:101050001092C5041092C4041092C3041092C204EA
:101060000E942C030E94EE030E94F5031092FE06DC
:1010700080910307823018F098E09093FE068093E9
:10108000010762E370E080E090E00E94C0006091A0
:10109000040789EF96E00E94F60468EE73E080E0B2
:1010A00090E00E94C00060E389EF96E00E941A057C
:1010B00084E991E10E94000160E389EF96E00E94DB
:1010C0001A0584E991E10E94000160E389EF96E04E
:1010D0000E941A0586E990E00E94000160E289EF13
:1010E00096E00E941A056091FE06606240E089EF7A
:1010F00096E00E94390584E08093FF0640E06CE0B2
:1011000089EF96E00E9439050E94860512E010934F
:10111000000740E066E089EF96E00E94390540E074
:1011200062E089EF96E00E94390580ED97E00E9429
:10113000000188E08093040760E089EF96E00E9458
:10114000F604E091E304F091E4041083E091DF04FD
:10115000F091E0041082E091E104F091E2048FEC60
:1011600080831092EB04E091E704F091E80486E0BC
:101170008083E091E504F091E604808180618083C2
:10118000E091E504F091E604808188608083E0913D
:10119000E504F091E604808180688083E091E504B5
:1011A000F091E60480818F7D808328E0222E21E06B
:1011B000322ECE0101968F83988730E0432E30E0A7
:1011C000532E8091D204811149C00E94860580E08F
:1011D0000E9450058EE691E00E94900540E060E498
:1011E00089EF96E00E94390500E011E0F801619175
:1011F0008F01E091F906F091FA060190F081E02D5F
:1012000089EF96E009952016310681F781E00E946A
:10121000500560E089EF96E00E9480058FE791E03D
:101220000E94900568E873E180E090E00E94C000B1
:101230000E94860580E00E9450058EE891E00E94A1
:10124000900581E00E94500588E991E00E94900598
:1012500068E873E180E090E00E94C0000AE511E0D8
:1012600099E7A92E95E0B92E61E086E10E949F01E1
:1012700061E088E10E949F0161E081E30E949F019B
:1012800061E08FE20E949F01F80180810E5F1F4F95
:1012900060E00E949F0165018AE3E82E81E0F82E5C
:1012A000F7018081F2E0EF0EF11C0E94CE01892B44
:1012B000E1F581E08093D2041A8219821C821B829C
:1012C0001E821D82F601608171816115710531F008
:1012D000448155818F8198850E94DB050E94860597
:1012E00080E00E94500588EA91E00E94900581E02C
:1012F0000E94500589809A804D815E81E091F906B7
:10130000F091FA060280F381E02DB40189EF96E0B6
:1013100009958114910419F0C4010E94110C6CE22A
:1013200071E080E090E00E94C000F6E0CF0ED11C9A
:101330006E147F0409F0B4CF80E6A80EB11CE2E67B
:10134000F1E0E017F10709F08FCF4114510409F4DF
:1013500038CF0E942102882309F433CF0E94000075
:1013600030CFE6ECF4E01382128288EE93E0A0E046
:10137000B0E084839583A683B7832AE131E031838B
:101380002083E3EDF4E01382128284839583A683A5
:10139000B7838CE291E09183808385EC90E0958720
:1013A000848784EC90E09787868780EC90E0918B2F
:1013B000808B81EC90E0938B828B82EC90E0958B1C
:1013C000848B86EC90E0978B868B118E128E138E19
:1013D000148EE9EFF6E01382128286E691E09183A3
:1013E000808387E2848380E1818782E0828713861D
:1013F00066EB71E089E795E00E941F0660EC71E002
:101400008FE795E00E941F066AEC71E085E895E0A1
:101410000E941F0663ED71E08BE895E00E941F06B5
:101420006CED71E081E995E00E941F0666EE71E0C7
:1014300087E995E00E941F0660EF71E08DE995E075
:101440000E941F066AEF71E083EA95E00E941F0682
:1014500064E072E089EA95E00E941F066DE072E0A8
:101460008FEA95E00E941F0666E172E085EB95E049
:101470000E941F066AE172E08BEB95E00E941F0656
:1014800064E272E081EC95E00E941F066DE272E07A
:1014900087EC95E00E941F0667E372E08DEC95E013
:1014A0000E941F0661E472E083ED95E00E941F0632
:1014B0006AE472E089ED95E00E941F0664E572E03F
:1014C0008FED95E00E941F066EE572E085EE95E0D7
:1014D0000E941F0667E672E08BEE95E00E941F06F1
:1014E00060E772E081EF95E00E941F066AE772E014
:1014F00087EF95E00E941F0664E872E08DEF95E0AB
:101500000E941F066DE872E083E096E00E941F06CD
:1015100066E972E089E096E00E941F0660EA72E0E8
:101520008FE096E00E941F066AEA72E085E196E08D
:101530000E941F0664EB72E08BE196E00E941F069A
:101540006EEB72E081E296E00E941F0667EC72E0AB
:1015500087E296E00E941F0661ED72E08DE296E060
:101560000E941F066AED72E083E396E00E941F0668
:1015700064EE72E089E396E00E941F066DEE72E071
:101580008FE396E00E941F0666EF72E085E496E026
:101590000E941F0660E073E08BE496E00E941F0645
:1015A0006AE073E081E596E00E941F0664E173E063
:1015B00087E596E00E941F066EE173E08DE596E0F8
:1015C0000E941F0667E273E083E696E00E941F0612
:1015D00060E373E089E696E00E941F066AE373E029
:1015E0008FE696E00E941F0664E473E085E796E0CC
:1015F0000E941F066EE473E08BE796E00E941F06D0
:1016000067E573E081E896E00E941F0661E673E0FB
:1016100087E896E00E941F066BE673E08DE896E08F
:101620000E941F0664E773E083E996E00E941F06AC
:101630006EE773E089E996E00E941F0667E873E0B1
:101640008FE996E00E941F0660E973E085EA96E064
:101650000E941F066AE973E08BEA96E00E941F066B
:1016600064EA73E081EB96E00E941F066DEA73E086
:1016700087EB96E00E941F0666EB73E08DEB96E029
:101680000E941F0660EC73E083EC96E00E941F0648
:101690006AEC73E089EC96E00E941F0663ED73E04C
:1016A0008FEC96E00E941F0666E172E085ED96E001
:1016B0000E941F066CED73E08BED96E00E941F0602
:1016C00065EE73E081EE96E00E941F066FEE73E018
:1016D00087EE96E00E941F0668EF73E08DEE96E0BD
:1016E0000E941F0662E074E083EF96E00C941F06F0
:1016F000F8940C94AF0D0F931F93CF93DF939C013D
:10170000029710F422E030E0E0910507F09106071F
:1017100090E080E0B0E0A0E0309791F4009709F409
:1017200045C0821B930B84309105B8F58A819B815B
:101730006115710569F1FB0193838283FE0111C07C
:10174000408151810281138142175307F0F0421703
:10175000530799F4109761F012960C931297139611
:101760001C933296CF01DF91CF911F910F91089575
:101770000093050710930607F4CF009719F0481758
:10178000590718F4CA01BD01EF01DF01F801C4CF08
:101790009093060780930507D1CFFE01E80FF91F4C
:1017A00021933193029799838883DCCF8091070737
:1017B00090910807892B41F480910A0190910B01C7
:1017C0009093080780930707809108019091090181
:1017D000009741F48DB79EB740910C0150910D01D7
:1017E000841B950B4091070750910807481759072C
:1017F00008F0B8CF841B950B8217930708F4B2CF7B
:10180000B9016E5F7F4F8617970708F4ABCF640F5F
:10181000751F7093080760930707FA0121933193AE
:10182000A1CFCF93DF939C010097E9F0FC013297A1
:1018300013821282C0910507D0910607DE0190E065
:1018400080E02097A1F480819181280F391F809139
:101850000707909108078217930709F067C0F09374
:101860000807E0930707DF91CF910895DA01AE17DB
:10187000BF0708F041C012964D915C911397CD01BE
:101880004115510599F7DC011396FC93EE931297DD
:101890004D915D91A40FB51FEA17FB0781F42081DC
:1018A00031812E5F3F4F240F351FDC0111963C9391
:1018B0002E932281338113963C932E931297B0E09E
:1018C000A0E08A819B810097B1F5FE018191919101
:1018D000E80FF91F80910707909108078E179F075F
:1018E00011F6109759F51092060710920507D0933C
:1018F0000807C0930707B7CFB383A2834081518104
:10190000240F351FA217B30771F44E5F5F4F2D915F
:101910003C911197240F351F3183208312962D910E
:101920003C9133832283009709F0ADCFF0930607F3
:10193000E093050798CFDE01EC01C3CF13961C920C
:101940001E921297D4CFB0E0A0E0E9EAFCE00C943C
:10195000740DEC01CB01209749F40E947B0BEC0144
:10196000CE01CDB7DEB7E0E10C94900DFE01E60F9D
:10197000F71F9E0122503109E217F30708F49FC0B8
:10198000D9010D911C91119706171707A8F0053082
:10199000110530F3A801445051094617570700F3C9
:1019A000061B170B02501109019311936D937C9341
:1019B000CF010E94110CD4CF4B01801A910A5E0115
:1019C000A00EB11EA0910507B0910607512C412C25
:1019D000F12CE12C109739F5409107075091080739
:1019E0004A155B0509F05DC04816590608F059C054
:1019F00040910801509109014115510541F44DB73D
:101A00005EB760910C0170910D01461B570BE417F6
:101A1000F50708F054C0F0930807E0930707F901B1
:101A2000918380839DCF4D915C91119712966C901C
:101A3000129713967C901397AA15BB0559F56A0166
:101A400062E0C60ED11CC814D90420F1B801681B8D
:101A5000790B640F751FDB011296159780F0628277
:101A6000738271836083D9018D939C93E114F10497
:101A700061F0D7011396FC93EE93129771CFC801D2
:101A80000296840F951FF301EECFF0930607E093C3
:101A9000050766CF4416550608F42A017D01D301D7
:101AA00099CF0E947B0B7C01009749F0A801BE01F1
:101AB0000E94620DCE010E94110CE70151CFD0E0CF
:101AC000C0E04ECFFB01DC0102C001900D924150FD
:101AD0005040D8F70895FB01DC0101900D920020E1
:101AE000E1F708952F923F924F925F926F927F920B
:101AF0008F929F92AF92BF92CF92DF92EF92FF921E
:101B00000F931F93CF93DF93CDB7DEB7CA1BDB0BC9
:101B10000FB6F894DEBF0FBECDBF09942A8839886E
:101B200048885F846E847D848C849B84AA84B98475
:101B3000C884DF80EE80FD800C811B81AA81B98181
:101B4000CE0FD11D0FB6F894DEBF0FBECDBFED0195
:101B50000895EE0FFF1F0590F491E02D099410E019
:101B6000C2E6D0E004C0FE010E94A90D2196C33652
:081B7000D107C9F7F894FFCF7B
:101B78001F11151715111F0000000907200000008C
:101B88004000140054000000000070039F03D502B9
:101B98002B03020309031C03000000008602D9027C
:101BA800570266021602430235021A001C001E0084
:101BB800200022002400260028002A002C002E00E5
:101BC80030003200340035003300160018003100B0
:101BD8002F00000000008005D902D502D8024D610F
:101BE80074726978205465737465722076310020A8
:101BF8005061747269636B2048656E657200506C41
:101C08007567696E20696E006D617472697820610C
:101C18006E64207465737400486974206465746523
:101C2800637465643A00446F75626C6520313200F4
:101C380053696E676C6520313200446F75626C655C
:101C480020390053696E676C65203900446F7562EE
:101C58006C652031340053696E676C65203134003F
:101C6800446F75626C652031310053696E676C652D
:101C780020313100446F75626C6520380053696EFD
:101C8800676C652038004E2F4100547269706C658E
:101C980020313200547269706C65203900547269C1
:101CA800706C6520313400547269706C6520313174
:101CB80000547269706C65203800446F75626C65F9
:101CC8002031360053696E676C6520313600446FE9
:101CD80075626C6520370053696E676C6520370044
:101CE800446F75626C652031390053696E676C65A5
:101CF80020313900446F75626C6520330053696E7A
:101D0800676C65203300446F75626C65203137005D
:101D180053696E676C6520313700446F75626C6576
:101D280020323500547269706C6520313600547267
:101D380069706C65203700547269706C65203139A0
:101D480000547269706C65203300547269706C6558
:101D580020313700446F75626C6520320053696E1C
:101D6800676C65203200446F75626C652031350000
:101D780053696E676C6520313500446F75626C6518
:101D88002031300053696E676C6520313000446F34
:101D980075626C6520360053696E676C6520360085
:101DA800446F75626C652031330053696E676C65EA
:101DB8002031330053696E676C65203235005472E8
:101DC80069706C65203200547269706C6520313519
:101DD80000547269706C6520313000547269706CFF
:101DE80065203600547269706C6520313300446F89
:101DF80075626C6520340053696E676C6520340029
:101E0800446F75626C652031380053696E676C6584
:101E180020313800446F75626C6520310053696E5B
:101E2800676C65203100446F75626C652032300044
:101E380053696E676C6520323000446F75626C655B
:101E480020350053696E676C6520350054726970DF
:101E58006C65203400547269706C65203138005408
:101E68007269706C65203100547269706C6520323B
:0C1E78003000547269706C652035000069
:00000001FF
